:020000040800F2
:100000000020002051880008ED5F0008F15F000823
:10001000F55F0008F95F0008FD5F000800000000C0
:100020000000000000000000000000000160000867
:10003000056000080000000009600008DD6000089D
:100040009988000899880008998800080D600008C0
:1000500099880008998800089988000899880008FC
:1000600099880008998800089988000899880008EC
:1000700099880008998800089988000899880008DC
:1000800099880008998800089988000899880008CC
:1000900099880008998800089988000899880008BC
:1000A00099880008998800089988000899880008AC
:1000B000998800089988000899880008998800089C
:1000C000998800089988000899880008998800088C
:1000D0009988000815610008998800089988000827
:1000E0009988000899880008998800080000000095
:1000F0000000000000000000000000000000000000
:10010000000000000000000099880008998800089D
:10011000998800089988000899880008998800083B
:10012000998800089988000899880008998800082B
:10013000998800089988000899880008998800081B
:10014000998800089988000899880008998800080B
:10015000000000000000000000000000000000009F
:10016000000000000000000000000000000000008F
:10017000000000000000000000000000000000007F
:10018000000000000000000000000000000000006F
:10019000000000000000000000000000000000005F
:1001A000000000000000000000000000000000004F
:1001B000000000000000000000000000000000003F
:1001C000000000000000000000000000000000002F
:1001D000000000000000000000000000000000001F
:0401E0005FF8E0F1F3
:1001E80040F25053C2F200031A780AB9012018707D
:1001F800704700BF40F25050C2F2000008B50368D3
:100208002BB140F20003C0F2000303B1984708BDC8
:1002180040F20803C2F200031868704770B54DF247
:10022800A4664DF2A465C0F60006C0F60005761B6C
:10023800B61006D0002455F8243001349847A64259
:10024800F9D84DF2A4654DF2A866C0F60005C0F6CF
:100258000006761B0DF012FAB61006D0002455F8E9
:10026800243001349847A642F9D870BD202814BF1D
:1002780000230123092814BF184643F001007047E2
:10028800032A30B405460C4625D941EA000313F089
:10029800030F15D0287894F800C060451ED1013AA4
:1002A800002306E04078013391F801C0013A604527
:1002B80014D1E818E118002AF4D1002030BC7047A6
:1002C80004680B689C4204D1043A04300431032AC0
:1002D800F6D805460C46002ADCD1EEE7CCEB000048
:1002E800ECE700BF032A2DE9F0070BD83AB1002349
:1002F80011F803C000F803C001339342F8D1BDE8F8
:10030800F007704782180C46034603E014F8011CF6
:1003180003F8011C03F003061946A446013301340F
:10032800002EF3D11CF00304634608BFC1EB020C96
:1003380068D06542C4F1040A0CEB050733464FEA5E
:10034800CA0A5CF805604FEAC408551A08E057F86D
:10035800044F264604FA0AF449EA0404CC5004334C
:100368005C18032D26FA08F9A5F104050CEB030621
:10037800EDDC002302E0F15CE154013319199142EC
:10038800F9D3BCE753F8404C41F8404C53F83C4C87
:1003980041F83C4C53F8384C41F8384C53F8344C3D
:1003A80041F8344C53F8304C41F8304C53F82C4C4D
:1003B80041F82C4C53F8284C41F8284C53F8244C5D
:1003C80041F8244C53F8204C41F8204C53F81C4C6D
:1003D80041F81C4C53F8184C41F8184C53F8144C7D
:1003E80041F8144C53F8104C41F8104C53F80C4C8D
:1003F80041F80C4C53F8084C41F8084C53F8044C9D
:1004080041F8044C1C460D4640334031BCF13F0FC7
:10041800ACF1400CB6DC21462B46541B0FE051F8DA
:10042800105C43F8105C51F80C5C43F80C5C51F814
:10043800085C43F8085C51F8045C43F8045C0F2C32
:100448000D469C4601F1100103F11003A4F11004BC
:10045800E5DCCCEB0201002303E0EC584CF8034048
:1004680004335E19032903EB0C04A1F10401F4DC45
:100478007FE700BF0EB440F2080330B59CB01FAC54
:10048800C2F20003054601A954F8042B4FF0FF3CC3
:1004980018684FF40273ADF810302346059501959E
:1004A8006FF00045ADF812C0069503951B9400F057
:1004B8002BFA019B00221A701CB0BDE8304003B033
:1004C800704700BF0CB40B4610B59CB01EAC01A918
:1004D80005934FF4027C54F8042B01934FF0FF333B
:1004E800ADF8123023461B946FF00044ADF810C0ED
:1004F8000694039400F008FA019B00221A701CB0BD
:10050800BDE8104002B0704780EA010212F0030F04
:100518003AD110F0030220F0030021F0030150F853
:1005280004CB08BF51F8043B0DD082F003024FEA18
:10053800C2026FF07F4323FA02F251F8043B4CEAFF
:10054800020C43EA020300BFACF101329C4501BF33
:1005580022EA0C0212F0803F50F804CB51F8043B19
:10056800F2D04FEA0C604FEA1C2C012828BFB0EBF0
:10057800036F08BF1B0AF4D003F0FF034FEA1060B3
:10058800A0EB0300704700BF10F0030F0AD010F86B
:10059800012B11F8013B012A28BF9A42F4D0A2EBA3
:1005A800030070474DF8045D4DF8044D4FF001020B
:1005B80042EA022242EA024201F0030C21F003015E
:1005C80050F8044B51F8045BBCF1020F26D04BD80D
:1005D80024F07F4CBCEB152FA4EB020323EA0403A1
:1005E8000DD113EAC21308BF51F8045B0AD18CEA93
:1005F800040CBCEB056F0CD150F8044BE8E74FEA4C
:1006080015255CE033F07F4352D10D784FEA146C26
:1006180055E04FEA146C05F0FF0550E04FEA044C32
:10062800A4EB02034FEA1C4C23EA0403BCEB154F6E
:1006380017D113EAC21308BF51F8045B07D18CEA3B
:10064800040CBCEB054F08D150F8044BE6E71B043B
:100658002ED10D884FEA144C31E04FEA05454FEA98
:10066800144C4FEA15452AE004F0FF0CBCEB156F5B
:10067800A4EB020323EA04030DD113EAC21308BF53
:1006880051F8045B0AD18CEA040CBCEB052F0AD1A3
:1006980050F8044BE8E74FEA156510E014F0FF0F37
:1006A80006D051F8045B4FEA142C25F07F4506E08C
:1006B8004FF000005DF8044B5DF8045B70470CF0E8
:1006C800FF0205F0FF00012828BF904204BF4FEA4F
:1006D8001C2C2D0AF3D0A2EB00005DF8044B5DF84A
:1006E800045B704720F0030110F00300C0F1000024
:1006F80051F8043B00F1040C4FEACC0C6FF00002F7
:100708001CBF22FA0CF213434FF0010C4CEA0C2CDC
:100718004CEA0C4CA3EB0C0222EA030212EACC12BC
:1007280004BF51F8043B0430F4D013F0FF0F1FBF8F
:10073800013013F47F4F013013F47F0F18BF0130DD
:10074800704700BF30B41346002A43D041EA000284
:1007580012F0030F25D1032B04460D463DD902683C
:1007680009688A4239D1043B34D0A2F1013121EA27
:10077800020212F0803F0DD02CE022682968A2F115
:1007880001308A4220EA020027D1043B22D010F02F
:10079800803F1FD104340435032BEED82046294668
:1007A800F3B10478013B91F800C064450FD18BB1D7
:1007B80084B1013B002202E063B15CB1013B8418C3
:1007C8008D180132647895F801C06445F4D0CCEBFB
:1007D800040000E0002030BC704720462946E0E7CE
:1007E800247895F800C0CCEB0400F4E72DE9F04F2D
:1007F80085B092460C46039090681768002800F070
:1008080081804FF000090B684D46002D54D0A66832
:10081800B542B0463EBF18462E46A8463CD3A089EE
:1008280010F4906F08BF184636D06269216902EB50
:10083800420B5B1A03F1010C0BEBDB7BAC444FEA78
:100848006B0BE3455A463CBFE3465A4610F4806FAB
:1008580037D011460398019302F0F8FB019B00285A
:100868003BD01A46216901930290FFF73BFDA2890C
:10087800019BDDF808C022F4906242F08002A28158
:100888002E46A846C3EB0B020CEB0300A260C4F88B
:1008980010C02060C4F814B04246494602F0E2FE97
:1008A800A2682368961BA660DAF8082043442360F0
:1008B800551BCAF80850FDB1D7F800907D68083775
:1008C800A3E70398019303F0D9FB019B8446002812
:1008D800D6D10398216902F08FFA039A0C234FF0BE
:1008E800FF3013600023A289CAF8043042F04002A6
:1008F800CAF80830A28102E02846CAF8045005B0B8
:10090800BDE8F08F5060FAE72DE9F04FC5B00E460C
:100918009A461546099002F055FBB38913F0800FEB
:1009280000681B9003D03369002B01F08C800DF117
:100938007409B3464C46002210920023189217926D
:100948001A920D922DAA199328320DF1F7031692D7
:1009580007930023CDF8DC90389339932B78B3F1C3
:10096800250218BF0122002B0CBF002202F0010251
:1009780002B32E4616F8013F1A1E18BF0122252B76
:100988000CBF002202F00102002AF3D1771B08BF36
:1009980035460FD06760389B399A01332560D219E4
:1009A800072B3992389379DC08340D983546C019ED
:1009B8000D903378002B00F0378700214FF00002AC
:1009C800CDF828A06B1C0C914FF0FF388DF80F2143
:1009D8008A466A782B204FF0200C5D1CA2F1200378
:1009E800582B00F21982DFE813F0290217021702C8
:1009F80035021702170217021702170217023C02E4
:100A080048021702C802CF021702EF02F602F602E6
:100A1800F602F602F602F602F602F602F6021702ED
:100A280017021702170217021702170217021702F6
:100A380017024F02880217028802170217021702CC
:100A48001702C10217021702EE0317021702170254
:100A580017021702930317021702AD0317021702B2
:100A680017021702170217021702170217021702B6
:100A7800C703D8038802880288020B03D803170229
:100A880017020F031702190329033E038C031702E9
:100A980059031702840317021702EA0009985946F6
:100AA80037AAFFF7A3FE00287CD14C467DE71899AA
:100AB800012940F35284119A01236360389B226014
:100AC800399A013338930132072B399200F396850E
:100AD800083401236360389B399A01331B9801322B
:100AE800072B39922060389300F37D8508341098DD
:100AF80000220023199904F0C5FA002840F0038564
:100B08001899119B4A1E6260591C389B21603999BB
:100B1800013338938A18072B399200F32F8408344D
:100B28001A9A1A9862603EAA389B2260399A013351
:100B380038931218072B399200F34F8104F10803F8
:100B48001AF0040F00F056810C990B9A8E1A002E99
:100B580040F35081102E4CF21077D8BFC0F6000732
:100B680040F3DE831024C0F600070DF1DC08DDF841
:100B780024A003E0103E102E40F3D2835C60389A24
:100B8800399901321F601031072A399103F108039E
:100B98003892EFDD504659464246FFF727FE4B464E
:100BA8000028E7D05E46B3890D9813F0400F18BFB0
:100BB8004FF0FF300D900D9845B0BDE8F08F1AF05A
:100BC800200F4DF24460C0F600001492179000F018
:100BD800C3820A99CB1D23F0070303F108020A9286
:100BE800D3E9006756EA07010CBF002201221AEA7E
:100BF800020F40F0BC8402234FF000018DF80F1162
:100C0800B8F1000FA8BF2AF0800AB8F1000F18BF8A
:100C180042F00102002A00F06081012B00F03484C8
:100C2800022B00F017841699CDF82C8011914FEA09
:100C3800D6084FEAD70C48EA477806F00700674617
:100C48004646303056EA070201F8010DEFD11AF096
:100C5800010FDDF82C80119140F0DB84169B5B1AA4
:100C68000E930E9BCDF854804345B8BF43460B9373
:100C78009DF80F3113B10B9901310B911AF0020253
:100C8800139202D00B9B02330B931AF0840012903C
:100C980038D10C990B9A8E1A002E33DD102E4CF297
:100CA8001077D8BFC0F6000720DD4FF01008C0F657
:100CB800000702E0103E102E18DDC4F80480389BAF
:100CC800399A013327601032072B399204F108044E
:100CD8003893EFDD0998594637AA4C46FFF786FD49
:100CE80000287FF45FAF103E102EE6DC6660389B6C
:100CF80027605A1C399B38929B19072A399300F3AD
:100D0800F78308349DF80F3173B101236360389B72
:100D180043AA03322260399A013338930132072BF0
:100D2800399200F340830834139B6BB1022363604C
:100D3800389B43AA2260399A013338930232072B31
:100D4800399200F33A8308341298802800F0B2826E
:100D580015980E9BC61A002E2EDD102EA74FC8BF61
:100D68004FF0100803DC1BE0103E102E18DDC4F80D
:100D78000480389B399A013327601032072B399247
:100D880004F108043893EFDD0998594637AA4C4610
:100D9800FFF72CFD00287FF405AF103E102EE6DC8F
:100DA8006660389B27605A1C399B38929B19072A22
:100DB800399300F3EE8208341AF4807F40F01982E8
:100DC8000E99119A6160389B2260399A01333893E1
:100DD8005218072B39927FF7B1AE0998594637AAAE
:100DE800FFF704FD00287FF4DDAE1AF0040F4B4630
:100DF8007FF4AAAE399B0D980B9A0C998A42ACBF26
:100E0800801840180D90002B40F09E820023DDF8DA
:100E180028A038934C46A1E51492002A00F00485D6
:100E280001208DF8B4204FF000012DAA0B908DF809
:100E38000F1111920E90002115911FE79DF80F31A7
:100E4800002B40F00C840A992B468DF80FC12A78A4
:100E58000A91C2E50A994AF0010A2A782B460A91B2
:100E6800BBE50A9B0A9A1B68111D002B0C93C0F264
:100E7800B2852A782B460A91AFE50A992B468DF858
:100E88000F012A780A91A8E54AF0100A14921AF07C
:100E9800200F00F087810A98C31D23F0070303F190
:100EA80008010A91D3E90067002E77F10000C0F22B
:100EB800768356EA07014FF001030CBF0022012296
:100EC800B8F1000FA8BF2AF0800AB8F1000F18BFC8
:100ED80042F00102002A7FF4A0AE002B40F0E58129
:100EE8001AF0010F00F0E18130238DF8DB302DABD3
:100EF800012027330E901193B3E61AF0080F1492CD
:100F080000F0BF830A98C31D23F0070303F108010B
:100F18000A915E681F68199610973846314603F0A3
:100F280087FA0346002800F09384384600220023FD
:100F3800314604F0B1F8002840F015849DF80F31CF
:100F480003204DF238624DF234610B901498C0F6CC
:100F58000001C0F600022AF0800A4728D8BF0A46D6
:100F68000321119200220E91159283E60A994AF004
:100F7800080A2A782B460A912FE50A992A784AF016
:100F8800040A2B460A9128E52B4613F8012B2A2A36
:100F980000F0CF86A2F13001092988BF4FF0000880
:100FA80010D802354FF0000815F8012C08EB880816
:100FB8002B46013501EB4808A2F130010929F3D984
:100FC80048EAE8781D4609E50A994AF0800A2A782D
:100FD8002B460A9101E5A2F1300100262B4606EBCB
:100FE800860613F8012B01EB4606A2F130011D46D7
:100FF8000929F3D90C961D46F0E400BF20C7000864
:101008004AF0400A0A9934E72A786C2A00F01884D2
:101018000A994AF0100A2B460A91DEE41AF0200FCA
:1010280000F023830A990D9A0B6810464FEAE07185
:101038000A9AC3E9000102F1040A8FE41AF02003B6
:10104800149200F0C7800A9BDA1D002322F00702E1
:1010580002F108000A90D2E9006756EA07010CBFBE
:1010680000220122C8E50A9A4DF244600A997823C1
:10107800C0F600001493166804318DF80D314AF05B
:10108800020A3023321E18BF01228DF80C31364671
:101098004FF00007179002230A91ADE50A9B1492BE
:1010A8004FF00002181D8DF80F211B680A9011934C
:1010B800002B00F04D85B8F1000F1198C0F22A8579
:1010C8000021424602F094FA0346002800F06E859B
:1010D80011981B1A0E93434540F38284CDF838804B
:1010E800002128EAE8789DF80F31CDF82C80159179
:1010F800C0E51AF0200F149210D00A9BDA1D0123C4
:10110800A4E70A994AF0200A2A782B460A9164E44F
:101118004AF0100A14921AF0200FEED11AF0100FAC
:1011280040F054821AF0400F00F050820A980123D0
:10113800011D0A910688321E18BF012236464FF05B
:10114800000759E51AF0200F14924DF22062C0F6FC
:10115800000217927FF43DAD1AF0100F40F02D8277
:101168001AF0400F00F029820A990A1D0A920E8887
:1011780036464FF0000735E5149201200A9A4FF0E1
:1011880000010B900E90136804328DF80F110A922B
:101198002DAA8DF8B43011924DE61AF0200F149252
:1011A8007FF479AE1AF0100F40F0ED811AF0400F7D
:1011B80000F0E9810A98011D0A91B0F900603646ED
:1011C8004FEAE67770E64AF0100A14921AF0200304
:1011D8007FF439AF1AF0100200F05F820A9A101DEE
:1011E8000A901668321E18BF012236464FF00007D3
:1011F80002E5149B652B7FF75AAC10980022002358
:10120800199903F03FFF002800F0E1800123636093
:10121800389A4DF26063C0F600032360399B0132AF
:1012280038920133072A3993D8BF04F1080300F331
:101238009F82429A1898824203DB1AF0010F3FF40A
:101248007FAC1B9901225A60389A1960399901328A
:1012580038920131072A399100F3EB830833189A41
:10126800561E002E7FF76CAC102EA04F40F3E9817C
:1012780010240DF1DC0803E0103E102E40F3E1814C
:101288005C60389A399901321F601031072A399108
:1012980003F108033892EFDD099859464246FFF7F3
:1012A800A5FA4B460028E7D07CE4169900220E9256
:1012B8001191D6E40C990B9A8E1A002E7FF748AD3F
:1012C800102E8A4FC8BF4FF0100803DC1BE0103EF9
:1012D800102E18DDC4F80480389B399A0133276032
:1012E8001032072B399204F108043893EFDD09987E
:1012F800594637AA4C46FFF779FA00287FF452ACD2
:10130800103E102EE6DC6660389B27605A1C399B1D
:1013180038929B19072A399300F38881083417E516
:101328005E60389A1F60399B01323892F318072A99
:1013380039937FF760AD0998594637AAFFF756FAEF
:1013480000283FF457AD2DE40998594637AAFFF70E
:101358004DFA00283FF45AAD24E41AF0010F7FF447
:10136800AAAB01236360389B399A01331199013282
:10137800072B3992216038937FF7D1AB09985946EA
:1013880037AAFFF733FA00287FF40CAC4C46FFF776
:10139800C7BB0998594637AAFFF728FA00287FF4EF
:1013A80001AC4C4608E50998594637AAFFF71EFADA
:1013B80000287FF4F7AB4C46B6E40998594637AA9B
:1013C800FFF714FA00287FF4EDAB4C46BCE4429BCF
:1013D800002B40F3D98118998B42C0F26F81119A82
:1013E8006160389B2260399A013338935218072B71
:1013F8003992D8BF04F1080300F3BA83429C1898C5
:10140800241A002C40F39B81102C384F40F38B8119
:10141800CDF838A01026AA460DF1DC08099D03E096
:10142800103C102C40F37C815E60389A3999013267
:101438001F601031072A399103F108033892EFDD54
:10144800284659464246FFF7D1F94B460028E7D0CF
:10145800FFF7A8BB1698DDF85CC003461190310968
:1014680006F00F0241EA077138091CF802200E46FF
:10147800074656EA070103F8012DF0D1169A119391
:10148800D21A0E92FFF7EDBB00230922B24273EB8A
:101498000700169B3EBFCDF82C80A0461C461AD2EA
:1014A800304639460A22002303F046FE30463946C4
:1014B800002302F1300C0A2204F801CD03F03CFEAF
:1014C80006460F4609200021B042B941E8D3234619
:1014D8004446DDF82C805A1E3036119203F8016C10
:1014E800169B9B1A0E93FFF7BCBB00BF20C70008D2
:1014F8000998594637AAFFF779F900287FF452ABC3
:101508004C46FFF7FFBB1898461E002E7FF708AB26
:10151800102E9C4FC8BF4FF0100803DC1BE0103E94
:10152800102E18DDC4F80480389B399A01332760DF
:101538001032072B399204F108043893EFDD09982B
:10154800594637AA4C46FFF751F900287FF42AABD1
:10155800103E102EE6DC6660389B399A013327600E
:101568009219072B399238937FF7D9AA06E714986E
:1015780030214AF0020A012202238DF80C118DF85D
:101588000D01FFF739BB0A9A131D16680A933646F0
:101598004FEAE677002E77F10000BFF68AAC764274
:1015A80067EB47072D2356EA07028DF80F310CBF6A
:1015B800002201220123FFF723BB0A9B181D1E6886
:1015C8000A9036464FF00007FFF70CBB0A9A131D26
:1015D80016680A930123321E18BF012236464FF0BF
:1015E8000007FFF709BB0998594637AAFFF7FEF825
:1015F80000287FF4D7AA4C46FFF779BA09985946CC
:1016080037AAFFF7F3F800287FF4CCAA4C46FFF777
:1016180060BA302800F09682119A302302F8013D12
:10162800169B11929B1A0E93FFF71BBB09985946FC
:1016380037AAFFF7DBF800287FF4B4AA4C46FFF777
:1016480087BB5E60389A399901321F608919072A69
:10165800399138923FF7C1AB0833FFF771BA0A994D
:101668002B462A780A91FFF7B8B91AF0100F00F044
:10167800CD810A980D9900F1040A03681960FFF7F3
:101688006DB90A9AD31D23F0070303F108000A90E5
:101698005E681F68199610973FE41AF0400300F03F
:1016A800A9810A9913460A1D0A920E88321E18BF8C
:1016B800012236464FF00007FFF79EBA119A636081
:1016C80038992260399A01313891D318072939930A
:1016D80000F3628208340123429E6360389B399A82
:1016E80001331B980132072B3893D8BF04F1080344
:1016F8002060399200F34682429A119918988E19FF
:101708001E60811A596039998A1A389912183992C3
:101718000131389107293FF760AB0833FFF710BA5A
:101728005546DDF838A05C60389A399901321F6057
:101738000919072A3991389200F37F8208331AF081
:10174800010F3FF4FDA91B9901225A60389A1960CC
:101758003999013238920131072A39913FF73DAB67
:101768000833FFF7EDB92D238DF80F31FFF7E8BBEC
:101778000998594637AAFFF739F800287FF412AAC2
:101788004B4656E520C7000801236360389A4DF29E
:101798006063C0F600032360399B0132389201333D
:1017A800072A3993D8BF04F1080300F37381429ADA
:1017B8002AB9189818B91AF0010F3FF4C1A91B9952
:1017C80001225A60389A19603999013238920131E8
:1017D800072A399100F368810833429C6442002C3F
:1017E80040F38781102C9E4F40F3A08110260DF105
:1017F800DC0803E0103C102C40F398815E60389AB6
:10180800399901321F601031072A399103F1080311
:101818003892EFDD099859464246FEF7E7FF4B46F6
:101828000028E7D0FFF7BEB9399B5E46002B3FF48E
:10183800BAA90998594637AAFEF7D8FFFFF7B3B9EE
:101848000A994AF0200A6A786B1C0A91FFF7C5B812
:1018580038463146089302F0FDFD089B002840F009
:101868000181B8F1FF3F08BF08F107080ED0149AAC
:10187800672A14BF00230123472A08BF43F0010346
:1018880023B1B8F1000F08BF4FF0010833463A46BC
:10189800CDE93A234AF4807A3B9B002BC0F20A82B6
:1018A800002315931499662914BF002301234629A0
:1018B80008BF43F001031293002B00F08A81032331
:1018C800CDF82C800B990E970F9600930998DDE9B7
:1018D8000E23019142A9029141A9039140A90491C3
:1018E80000F0EAFA149AB2F1670318BF0123472AF5
:1018F8000CBF002303F0010311902BB91AF0010F5C
:1019080008BFDDF800C11AD0119B0B98129903EBA0
:10191800000C29B11B78302B00F0D080429B9C44EE
:101928003846002200233146CDF820C003F0AAFB38
:10193800DDF820C0002800F07381CDF800C11498AC
:101948001199672814BF00230123472808BF43F0D3
:101958000103C1EB0C011891002B00F04A81429A57
:1019680012F1030F0E9202DB904580F24B81149B1B
:10197800023B14930E9A1498531E4293002B8DF831
:10198800F800C0F2D1812B228DF8F920092B00F341
:1019980062813FA930338DF8FB3030238DF8FA305F
:1019A8003EAB189ACB1A18991A935918012A0E9116
:1019B80040F3CC810E9801300E9020EAE0710B9133
:1019C800159B002B00F0FD802D2300208DF80F3192
:1019D8001590FFF750B90C9B5B420C93FFF7CEBAFA
:1019E8000E9A00209DF80F3122EAE27215900B92B0
:1019F800FFF740B90A98011D0A910668321E18BF00
:101A0800012236464FF00007FFF7F6B81AF0400FEC
:101A180017BF0A9A0A990D9802F1040A11BF1368B0
:101A280001F1040A0B680D9A14BF18801A60FEF7BA
:101A380095BF0998594637AAFEF7D8FE00287FF4C3
:101A4800B1A84B460BE40998402101F0FFFA306039
:101A58003061002800F08D8140237361FEF767BF75
:101A680020C7000803204DF240624DF23C610B9004
:101A78001498C0F60001C0F6000215934728D8BF95
:101A88000A462AF0800A032111929DF80F310E911F
:101A9800FFF7F0B80998594637AAFEF7A7FE0028BD
:101AA8007FF480A84B4682E60998594637AAFEF784
:101AB8009DFE00287FF476A84B468EE63846002225
:101AC80000233146CDF820C003F0DCFADDF820C051
:101AD80000287FF423AF0B9AC2F1010342931EE75B
:101AE8000998594637AAFEF781FE00287FF45AA8BC
:101AF8004B46189A11985A60389A399918600132E9
:101B0800189838920918072A39913FF766A90833B7
:101B1800FFF716B800211591FEF7E4FD9DF80F3187
:101B280020EAE0720E900B92FFF7A4B85C60389A36
:101B38001F60511C399A3891121907293992CFDC44
:101B48000833D6E716991198081A0E90FFF789B846
:101B5800B8F1060F34BF414606214DF25862C0F66F
:101B6800000221EAE1730E9111920B93FFF763B91A
:101B78000998594637AAFEF739FE00287FF412A8BB
:101B88004B463BE40998594637AAFEF72FFE002832
:101B98007FF408A84B46AFE50998594637AAFEF7DF
:101BA80025FE00287EF4FEAF4C4694E5CDF838803B
:101BB80028EAE8781590CDF82C809DF80F31FFF7CA
:101BC80059B80E989DF80F3120EAE0700B90FFF796
:101BD80051B8149A652A14BF00230123452A08BF67
:101BE80043F00103002B32D008F101030B930223C9
:101BF80068E61498652862DD149A662A1CBF429B21
:101C08000E936FD0189A0E9B9A425BDC1AF0010F64
:101C180040F0818023EAE37067210B901491CFE6AE
:101C2800409B9C4598BF9C467FF689AE302203F8BE
:101C3800012B9C454093FAD881E60998594637AA62
:101C4800FEF7D4FD00287EF4ADAF4B4677E5CDF81E
:101C58002C80023336E646F2676C0DF1F700C6F2C7
:101C6800666C8CFB0321DA17C2EBA10202EB82013E
:101C7800A3EB410113463031092A00F8011DF0DCBD
:101C88003033421ED9B200F8011C079B934298BF1B
:101C98000DF1FA017FF684AE02460DF1FB0301E077
:101CA80012F8011B03F8011C1946079801339042EA
:101CB800F6D875E62D2006F100461590F2E5429912
:101CC8000E9157E60E9918980029DABF0E9AC2F1BC
:101CD800020301231B18672123EAE3720E93149170
:101CE8000B926DE6429800280E9038DDB8F1000F8F
:101CF80007D11AF0010F04BF20EAE0710B913FF4FD
:101D08005FAE0E9A66201490531C43440E9323EA48
:101D1800E3710B9154E60E9A6723149301320E92E5
:101D280022EAE2700B904BE62D225B428DF8F920F7
:101D38002CE60A991A78D1F8008004310A91B8F192
:101D4800000FB8BF4FF0FF38FEF747BE1AF0010F7B
:101D580004BF21EAE1730B933FF432AE2AE6B8F1EF
:101D6800000F0ED11AF0010F0BD101220B920E9227
:101D780026E609980C234FF0FF310D910360FEF71A
:101D88001ABF08F10203662023EAE3710E93149048
:101D98000B9115E6000000002DE9F84F03690E6964
:101DA800824689469E4200F38380F21C01F11405A5
:101DB80000F11404013E92008B18121803F1040874
:101DC80059685068013102F0FFFB0746002839D0F6
:101DD80000239C461A46E958E0581FFA81FE4FEA4C
:101DE800114B81B20EFB07CE51180BFB07FC0CEB15
:101DF8001E4C1FFA8EFECEEB01011FFA8CF24FEA41
:101E08001C4CC2EB10421FFA81FE02EB21424EEA43
:101E18000241E1500433121459198845DBD2321DAE
:101E28000AEB8203596869B99C4209D25AF8222000
:101E380012B105E01A681AB9043B013E9C42F9D375
:101E4800CAF810604946504601F0BEFC00282CDB59
:101E5800002301379C46EA58E05891B2120C1FFA49
:101E680080F9C2EB1042C1EB0901614402EB214247
:101E780089B241EA0241E15004334FEA224C5A192F
:101E88009045E8D2321D0AEB8203596869B99C4231
:101E980009D25AF8222012B105E01A681AB9043B8F
:101EA800013E9C42F9D3CAF810603846BDE8F88F65
:101EB8000020BDE8F88F00BF2DE9F04F466AA1B0B9
:101EC8000446904699462D9D002E00F023843268E2
:101ED80082B1616A4FF0010C766820460B68566043
:101EE8004A6819460CFA02F29A6001F0A7FD636A83
:101EF80000221A60B9F1000638DB00232B6040F29B
:101F08000003C7F6F0731A4606EA0303934217D094
:101F18000022002340464946CDE9068903F0B2F87D
:101F2800002829D02C9801232E990360002900F05D
:101F3800D080794B581E2E9A136021B0BDE8F08FDF
:101F48002C9842F20F730360B8F1000F00F09580EF
:101F58004DF27060C0F600002E990029EDD0C278CD
:101F6800C31C002AE7D000F10803E4E726F0004686
:101F78000123B1462B60C2E72046DDE906231EA9EE
:101F880000911FA9019101F0ABFDC6F30A558346E4
:101F9800002D7ED0DDE90601A5F57E751F9F073D62
:101FA80021F07F4323F4700343F07E51002341F472
:101FB800E001199340F200030022C3F6F87302F01F
:101FC80045FC4FA3D3E9002302F0F4FD4EA3D3E967
:101FD800002302F03DFCCDE90801284602F084FD0B
:101FE8004BA3D3E9002302F0E5FD02460B46DDE9E9
:101FF800080102F02DFCCDE9080103F075F8002274
:1020080000230646DDE9080103F046F840B13046F2
:1020180002F06AFDDDE9082303F034F800B9013E57
:10202800162E5BD901231893013FB7EB050A42BF6F
:10203800CAF1000ACDF83CA04FF0000A01D40022F2
:102048000F92002EC0F27183B244002317961593A5
:102058002A9B092B62D8052B40F377862A980027FC
:1020680004382A902A998B1E032B00F2DD83DFE8BF
:1020780013F0A503D803D503C40326F07F4626F43E
:102088007006002E7FF464AF4DF26460C0F6000065
:1020980062E71F9F1E9BFB1803F586639D1C202D7E
:1020A800DCBFC5F1200008FA00F008DD1E3BC5F1D1
:1020B800400216FA02F228FA03F342EA030002F099
:1020C80003FDA5F586650122033D1992A1F1F8717A
:1020D80070E74DF26060C0F600002EE74CF26873BE
:1020E800DDE90601C0F6000303EBC603D3E90023CC
:1020F80002F0D2FF002840F02083189094E700BF38
:1021080061436F63A787D23FB3C8608B288AC63FF5
:10211800FB799F501344D33F61D6000800234FF04A
:10212800FF301F4601212A931190169108902B9396
:10213800656A00236B602046696801F09BFC636A4E
:1021480028601B681093002F00F05B81002E40F37D
:102158002A844CF2687306F00F02C0F600033511AA
:1021680003EBC20315F0100FD3E90001CDE90C0110
:1021780000F0E7824CF64003DDE90601C0F60003F3
:1021880005F00F054FF00308D3E9082302F03CFEE1
:10219800CDE91201BDB14CF64007DDE90C23C0F6CC
:1021A800000715F0010F1046194607D0D7E900239C
:1021B80008F1010802F0FEFC02460B4608376D10D4
:1021C800EFD1CDE90C23DDE90C23DDE9120102F0A2
:1021D8001BFECDE90C011899002900F0DE8040F2C1
:1021E8000003DDE90C010022C3F6F0734FF000058F
:1021F80002F052FF08B14FF00105089A002AD4BF37
:10220800002505F00105002D00F0C780119B002B6B
:1022180040F3F58040F200030022C4F22403DDE914
:102228000C0102F0C7FCCDE90C0108F10100711E98
:10223800129102F059FC02460B46DDE90C0102F04E
:10224800B9FC40F200030022C4F21C0302F000FBB8
:10225800DDF844C08046A1F15079169B002B00F0B0
:10226800AD834CF2687340F20001C0F60003002011
:1022780003EBCC03C3F6E071CDF80CC053E902239D
:1022880002F0C2FD42464B46109D02F0DFFA80463E
:102298008946DDE90C0102F027FF074602F024FC1D
:1022A80002460B46DDE90C0102F0D0FA07F13003D3
:1022B800CDE90C01404605F8013B4946DDE90C2310
:1022C80002F008FF002840F0138240F20001DDE927
:1022D8000C230020C3F6F07102F0B8FA02460B4650
:1022E8004046494602F0F6FEDDF80CC0002840F0F2
:1022F800E783BCF1010F40F38280CDF868B0012775
:10230800CDF870A01D966646DDE90CAB0C9410E084
:1023180040F200010020C3F6F07102F097FA42463D
:102328004B4602F0B9FE002840F0C783B74280F25E
:102338008B8440F20003404649460022C4F224033D
:10234800013502F037FC40F200030022C4F22403F6
:10235800804689465046594602F02CFC8B468246F8
:1023680002F0C2FE044602F0BFFB303402460B46C0
:102378005046594602F06AFA109A4B46D4554246DE
:10238800013782468B4602F087FE52465B4600289C
:10239800BED0DDF868B00C9CAAE1404602F0A4FB70
:1023A800DDE90C2302F006FC40F200030022C4F22F
:1023B8001C0302F04DFA089AA1F150758046A9460F
:1023C800002A40F0EC8240F20003DDE90C01002213
:1023D800C4F2140302F03AFA42462B46CDE90C0146
:1023E80002F078FE002840F04A824246DDE90C01FE
:1023F80005F1004302F050FE002840F0D581DDE9E8
:1024080006891E9B6FEA03074FEAD7770E2ECCBFCB
:10241800002707F00107002F00F0B7802B984CF237
:102428006873C0F60003089903EBC603C20F0029BE
:10243800CCBF002202F00102D3E90001CDE904017A
:10244800002A40F0A08102460B464046494602F069
:10245800DBFC109D02F048FE824602F045FBDDE9F8
:10246800042302F0A7FB02460B464046494602F009
:10247800EDF90AF1300305F8013B089A012A804674
:10248800894652D040F200030022C4F2240302F02D
:1024980091FB00220023CDE9060102F0F3FD00289C
:1024A80040F0EB8110984FF00108CDF82CB0A3460E
:1024B800871C0F96DDF82090DDE906450AE002F05A
:1024C80079FB0022002304460D4602F0DBFD0028BC
:1024D80040F0CE81DDE904232046294608F10108B1
:1024E80002F092FC3E4602F0FFFD824602F0FCFA42
:1024F800DDE9042302F05EFB02460B46204629462E
:1025080002F0A4F900220AF1300C07F801CC0137D7
:10251800C14540F20003C4F22403D0D135465C46DD
:102528000F9E8046DDF82CB0894642464B46404611
:10253800494602F08DF9804689464246DDE90401A4
:102548004B4602F0A9FD60B9DDE9040142464B465D
:1025580002F098FD002800F090811AF0010F00F0B9
:102568008C81109900E01D4615F8012C6B1E392A44
:1025780040F067838B42F6D110993023013631221F
:102588000B70109B1A701296B2E0169A002A40F04F
:10259800DF80159F0F9D0C92002DD4BF00230123CF
:1025A800BAF1000FD4BF002303F001034BB1AA45D1
:1025B800B4BF53462B460F98C3EB0A0AED1AC01A4C
:1025C8000F90159900291CDD169A002A00F0E9825F
:1025D800002F12DD0C993A46204601F0ABFC5A4612
:1025E8000C9020460C9901F0BDFB59460346204645
:1025F800039301F023FA039B9B46159BDA1B40F0DB
:1026080011830121204601F047FC06901798002805
:1026180005DD06992046179A01F08CFC06902A9948
:10262800012940F30A810027179B002B40F06182A3
:102638000123534413F01F0340F02A811C230F9AEF
:102648009A44ED18D2180F920F9B002B05DD5946BE
:102658001A46204601F028FB8346BAF1000F05DD33
:1026680006995246204601F01FFB0690189800284C
:1026780040F029822A9808990228D4BF0023012310
:102688000029CCBF002303F00103002B00F00C81CC
:10269800002940F08C8005220699089B204601F00D
:1026A80005FC06905846069901F08EF800287EDD54
:1026B800109D01360027DDF830A0312305F8013BD5
:1026C8000699204601F0BAF9BAF1000F00F0D5805A
:1026D8003B1E18BF012357450CBF002303F001031D
:1026E800002B40F0D0805146204601F0A7F9129601
:1026F8002046594601F0A2F9129A531C00222A706A
:102708002C982E990360002900F0D4812E9A1098F5
:10271800156012E4102000F091FCC66046608660E7
:10272800066006466062FFF7D2BB0F98714200222E
:102738001591801B17920F908AE40021013E189191
:1027480072E4DDE906234FF00208CDE9122321E502
:102758002A98012840F36C82089A1598531E9842CB
:10276800C0F25882C71A089B002BA8BF0F9DC0F261
:1027780073820F9A204601219A44D2180F9201F0D1
:102788008BFB0C9008E7089B73B940F2000300220A
:10279800C4F21403DDE9040102F00CFA42464B4688
:1027A80002F08EFC00286AD0002206920C922B9B25
:1027B8000027DDF830A0DE43109D81E70021169147
:1027C8002B98002840F39F812B9801461190089080
:1027D800656A002217296A6040F2AB8204235B0015
:1027E800013203F114008842F9D9089B6A600E2B64
:1027F8008CBF002707F001079DE4012216922B9B4E
:10280800F3181193591C0029C8BF0891E0DC0E2960
:102818008CBF002707F00107089189E4012316936C
:10282800CEE700221692EAE74FF0FF330027012097
:102838001193169008932B977AE4B8F1000F7FF460
:10284800F2AE29F07F4323F47003002B7FF4EBAE44
:1028580040F20003C7F6F07309EA0303002B3FF4C4
:10286800E2AE0F9A0AF1010A012701320F92DBE664
:1028780035465C460F9EDDF82CB0129638E70020EE
:1028880006900C9014E73946204601F0D7F82AE75D
:10289800C3F12003042B40F354820F99043B9A445C
:1028A800ED18C9180F91CFE61699002900F031816B
:1028B800002D05DD0C992A46204601F0F5F90C900B
:1028C800002F40F0EA81DDF830A0109D012308F0C8
:1028D80001000C9F11900F951D460C9606995846BD
:1028E800FFF75AFA394630300B90584600F06CFF23
:1028F800069952460646204601F05AF9C3688046B2
:10290800002B3DD04FF001094146204601F096F8D2
:102918002A9959EA010103D1119A002A00F0EB81A2
:10292800002EC0F29E812A9A324303D1119B002BBC
:1029380000F09781B9F1000F00F3CE810F990B9A3F
:1029480001F8012B089B0F919D4200F0C281594666
:102958000A220023204601F0A9FA57453946834642
:1029680014D00A2200232046013501F09FFA51466F
:102978000A2200230746204601F098FA8246ADE76E
:102988005846414600F020FF8146BDE720460A220E
:102998000023013501F08AFA074682469EE712961F
:1029A800DDF820C059E47542002D40F00181DDE9D1
:1029B80006014FF00208CDE90C010CE44CF26871F5
:1029C8004246C0F600014B4601EBCC01CDF80CC0E5
:1029D800109D51E9020102F0EDF8CDE91A01DDE997
:1029E8000C0102F081FB074602F07EF80B46024616
:1029F800DDE90C0101F02AFF07F13003CDE90C01F4
:102A080005F8013BDDF80CC0BCF1010F29D0D14617
:102A1800DDE90C01B246109E1C9501276546A046CB
:102A280040F200030022C4F2240302F0C3F8CDE907
:102A38000C0102F059FB044602F056F83034024605
:102A48000B46DDE90C0101F001FFF4550137AF42F7
:102A5800E6D11C9D013F56464446CA46ED19CDE9CC
:102A68000C0140F200030022C3F6E073DDE91A010D
:102A780001F0EEFE02460B46DDE90C0102F02AFBEE
:102A8800F0B940F20001DDE91A230020C3F6E07135
:102A980001F0DCFE02460B46DDE90C0102F0FCFA0F
:102AA80000283FF4ACAC2B461D4613F8012D302A04
:102AB800FAD01DE61098FFF740BADDF868B00C9C14
:102AC800129E109950E55846069900F07DFE0028A0
:102AD800BFF6D0AD594620460A22002301F0E6F998
:102AE8001699013E8346002940F01981119A0892EF
:102AF800C0E50698036900EB8303186900F012FE2D
:102B0800C0F1200395E50121119108912B91FFF760
:102B18000FBB109DB146169FAA46DDF81880089E87
:102B280002E001F0C3F9834641465846FFF734F9FD
:102B380001350A220023594600F1300C0AF807C073
:102B480001372046BE42ECDCDDF830A04E460027B7
:102B5800CDF82CC059460122204601F0A5F8069967
:102B6800834600F031FE00280FDD109900E01D4675
:102B780015F8012C6B1E392A40F08C808B42F6D157
:102B88001099312301360B709AE503D10B9810F098
:102B9800010FEAD12B461D4613F8012D302AFAD031
:102BA8008EE55946159A204601F0C4F9834628E572
:102BB80005F00F034CF26872C0F60002DDE9060169
:102BC80002EBC303D3E9002301F0F4FF2D1108BF82
:102BD8004FF00208CDE90C013FF4FDAA4CF640077E
:102BE800DDE90C234FF00208C0F6000715F0010FCD
:102BF8001046194607D0D7E9002308F1010801F06B
:102C0800D9FF02460B4608376D10EFD1CDE90C23EA
:102C1800FFF7E1BA1599179A5B1AC918D2181591D6
:102C28001792A0E55946204601F084F98346E8E466
:102C38001999002947D003F58663159F03330F9D23
:102C480097E50132D2B29DE4DDF868B0DDF870A0F6
:102C58001D9E0C9CFFF7D3BB0F99002308980D1AF3
:102C680087E5B9F1000F0F9D0C9E0FDD5946012233
:102C7800204601F019F80699834600F0A5FD0028C2
:102C880047DD0B99392931D001310B910B9A05F8A1
:102C9800012B15E501321A7012E50C9A204651688D
:102CA80000F0E8FE0C9B03F10C011A690232920055
:102CB80005460C30FDF716FB20462946012200F098
:102CC800F3FF824601E61F9B159F0F9DC3F1360354
:102CD8004FE50F9D0C9E3DE70B9B0F9D392B0C9EDE
:102CE80004D00B98431C05F8013BE9E4392305F8A7
:102CF800013B10993CE70B9833460F9D39280C9EF1
:102D0800F4D0002B01DD01300B900B9905F8011B65
:102D1800D6E4BBD10B9810F0010FB7D0B1E7002370
:102D28000C9920460A2201F0C1F8119B08930C90D7
:102D3800A0E408990E298CBF002707F00107FFF7C8
:102D4800FAB93FF481AC1C3379E40127FFF78AB95B
:102D5800F8B540F2FC04C2F200040F46054600F044
:102D6800DDFCA3685E6826F0030606F57E630F3374
:102D7800DF1B3F0B013F3F03B7F5805F07DB0021F7
:102D8800284601F075FBA368F318834204D028464F
:102D980000F0C6FC0020F8BD7942284601F068FB27
:102DA800B0F1FF3F10D0A26840F25853C2F20003BE
:102DB800F61B46F00106284656601A68D71B1F60A6
:102DC80000F0AEFC0120F8BD0021284601F050FBC0
:102DD800A368C21A0F2ADADD40F2045440F25851AF
:102DE800C2F20004C2F2000142F001022468001B92
:102DF80008605A60CBE700BF2DE9F04105460C4654
:102E0800002900F0888000F089FCA4F1080240F253
:102E1800FC005668C2F2000026F00103D0F808C092
:102E2800D1188C454F6827F0030700F0958016F0FD
:102E380001064F605FD00026CC19646814F0010FBA
:102E480006D1DB19002E7AD08C68C9688C60E160E5
:102E580043F00101D3505160002E47D1B3F5007FF4
:102E68005BD3590A04299EBF4FEA931C0CF1380C16
:102E78004FEACC0428D914299CBF01F15B0C4FEA16
:102E8800CC0421D954299EBF4FEA133C0CF16E0C97
:102E98004FEACC0418D9B1F5AA7F9EBF4FEAD33CBC
:102EA8000CF1770C4FEACC040ED940F2545C614522
:102EB80095BF4FEA934C4FF47C740CF17C0C4FF0A7
:102EC8007E0C98BF4FEACC040419A168A14203D133
:102ED80064E089688C4204D0486820F0030083428B
:102EE800F7D3CB68D3609160CA609A602846BDE882
:102EF800F04100F015BC54F8084C00F1080C121B06
:102F08001B199468644547D0D2F80CC0CCF8084027
:102F1800C4F80CC090E7BDE8F081DB084FF0010C65
:102F2800466800EBC3019B100CFA03F3D1608C6870
:102F380046EA030343609460E2608A60D6E78C68DF
:102F48001C4FBC4281D1D35043F00103E260A26020
:102F580053609460D460C9E7FB1816F0010F07D1DD
:102F680054F8081C521A5B18D4689168A160CC60A8
:102F780040F208518260C2F2000143F00100506043
:102F88000A689342B2D340F254532846C2F200036F
:102F98001968FFF7DDFEA9E701264DE70126446819
:102FA8004FEAAC0C0B4606FA0CFC44EA0C044460ED
:102FB80098E700BF040100204CF23073C0F600030C
:102FC800186870470048704734C7000800487047C1
:102FD80034C7000870B505460E46144672B14DF266
:102FE8001C611046C0F60001FDF78EFA58B94DF283
:102FF8001C602C62C0F60000EE6170BD4DF21C60D2
:10300800C0F6000070BD4DF24C512046C0F60001DC
:10301800FDF77AFA0028EAD0002070BD40F20803D4
:103028000A46C2F2000301461868D3E740F20803D3
:103038000146C2F200031868FFF7DEBE40F208033B
:103048000146C2F20003186800F000B82DE9F04FFD
:1030580001F10B04162C83B006462FD80023102448
:103068008C422CBF194643F00101002930D130466B
:1030780000F054FBB4F5FC7F2ED24FEAD40E40F298
:10308800FC05C2F2000505EBCE02D368934200F0BE
:1030980006825A6803F10805D968304622F0030C05
:1030A8009A6863445C688A6044F00104D1605C609B
:1030B80000F036FB284603B0BDE8F08F24F0070483
:1030C800E30F8C422CBF194643F001010029CED0F2
:1030D8000C2300253360EDE75FEA542E04BF4FEA66
:1030E800D40E4FEACE0040F0908040F2FC05C2F2C8
:1030F80000052818C368984206D10DE0002A80F21E
:103108006F81DB68984207D0596821F003010A1BD8
:103118000F2AF3DD0EF1FF3E0EF1010E40F2FC071F
:10312800C2F2000707F108018B68994208BF7A6864
:1031380026D05A6822F0030CC4EB0C020F2A00F3C5
:103148009481002AC960896080F29980BCF5007F6B
:1031580080F065814FEADC0C4FF0010A7A6807EBD2
:10316800CC004FEAAC0C0AFA0CFCD860D0F8088006
:103178004CEA02027A60C3F80880C8F80C30836011
:103188004FF0010C4FEAAE030CFA03FC944500F231
:10319800828012EA0C0F08D12EF0030E4FEA4C0C75
:1031A8000EF1040E12EA0C0FF8D007EBCE09F24626
:1031B800C846D8F80C30984507D168E1002A80F253
:1031C8007881DB68984500F06281586820F0030038
:1031D800021B0F2AF2DD1D461F19D3F80CC044F05C
:1031E800010E55F8084F3046BA5042F00102C3F8B4
:1031F80004E0CCF80840C4F80CC08F60CF607A6057
:10320800B960F96000F08CFA54E7BEF1040F9EBF74
:103218004FEA941E0EF1380E4FEACE007FF665AFE6
:10322800BEF1140F9CBF0EF15B0E4FEACE007FF685
:103238005CAFBEF1540F9EBF4FEA143E0EF16E0E06
:103248004FEACE007FF651AFBEF5AA7F9EBF4FEA88
:10325800D43E0EF1770E4FEACE007FF646AF40F22D
:1032680054539E4595BF4FEA944E4FF47C700EF12F
:103278007C0E4FF07E0E98BF4FEACE0035E703EB89
:103288000C0203F108053046536843F0010353600C
:1032980000F046FA0EE7D7F80880D8F8043023F093
:1032A8000309C4EB09024C4594BF002301230F2AEC
:1032B800D8BF43F00103002B00F0A18040F2545B1B
:1032C800D5F80824C2F2000BDBF8003010331B19C4
:1032D800B2F1FF3F06D003F57E631F3323F47E630C
:1032E80023F01F0319463046019301F0C1F8019BF2
:1032F800B0F1FF3F824600F0F48008EB09018142FB
:1033080000F2EC80DBF804209A185145CBF8042031
:1033180000F04581D5F8085440F2FC00C2F20000E4
:10332800B5F1FF3F08BFC0F808A403D05244511AB2
:10333800CBF804101AF00705304617BFC5F1080589
:103348004FF48055AA4405F5805553441B051B0DC1
:10335800ED1A294601F08CF8B0F1FF3F00F02C81FE
:10336800CAEB0001491941F00101DBF8042040F2E1
:103378005453C7F808A0C2F20003AA18B845CBF8FE
:103388000420CAF8041017D0B9F10F0F40F2DF80FB
:10339800A9F10C01052521F0070108EB01000F290F
:1033A80085604560D8F8040000F0010041EA00009B
:1033B800C8F8040000F2AC80D04640F25453DBF861
:1033C8002C10C2F200038A42DBF8301088BFDA62A0
:1033D80040F25453C2F200038A4288BF1A6382E063
:1033E8005C189A68D9683046666803F108058A60EF
:1033F80046F00103D160636000F092F95AE608EBE9
:10340800040342F0010244F001043046C8F80440C5
:1034180008F108055A60BB6000F082F94AE64FEAF5
:103428005C22042A54D9142A00F289805B324FEABC
:10343800C208A84440F2FC07C2F20007D8F8080006
:10344800404503D16FE08068804504D0426822F08F
:1034580003029445F7D3D0F80CC0C3F80CC09860A9
:103468007A68C360CCF808308AE61F19304644F001
:103478000104CF605C6003F10805BA5042F0010214
:103488008F607A60B960F96000F04AF912E60AF1D3
:10349800010A1AF0030F5FD003F1080889E603F167
:1034A8000802D3689A4208BF0EF1020E3FF436AE06
:1034B800EFE51D461918DA68304655F8083F4C689C
:1034C800936044F00104DA604C6000F029F9F1E5FA
:1034D8004FEA9C1238324FEAC208AAE7B8453FF4CF
:1034E80011AFD7F80880D8F8042022F003029442DC
:1034F80094BF00230123121B0F2AD8BF43F00103F6
:10350800002B3FF47CAF3046002500F009F9D1E5E7
:1035180008F1080130460193FFF76EFC019BD7F8CC
:1035280008805A6849E74FF0010AD7F804809210DA
:1035380084460AFA02F248EA02027A608DE7542ABF
:1035480024D84FEA1C326E324FEAC20871E70123D1
:10355800D046CAF80430C6E74A461EF0030F1346A1
:103568000EF1FF3E33D053F808299A42F5D07B6814
:103578004FEA4C0C9C453FF68EAEBCF1000F3FF471
:103588008AAE1CEA030F27D0D6460EE6B2F5AA7F0C
:1035980015D84FEADC3277324FEAC20849E7080506
:1035A800000D00287FF4B6AED7F808804B4443F0EE
:1035B8000103C8F8043000E701210025D5E640F2F0
:1035C800545082420DD94FF47C787E2231E77B68D3
:1035D80023EA0C037B60CBE74FEA4C0C0AF1040AA0
:1035E800CFE74FEA9C427C324FEAC20821E700BF8E
:1035F80010F0030FC9B210B410D0002A2FD00378EE
:103608008B422AD0013A05E0002A28D00378013AF3
:103618008B4222D0013010F0030FF5D1032A11D9C3
:1036280041EA012444EA0444036884EA0303A3F159
:10363800013C2CEA030313F0803F03D1043A043021
:10364800032AF1D85AB103788B4206D0013A32B135
:1036580010F8013F013A8B42F9D110BC70470020A5
:10366800FBE700BF88428C4670B4054614460ED965
:103678008B1898420BD242B1C2EB030C0146531E81
:103688001CF80320CA54013BFAD270BC70470F2AB9
:1036980009D8002CF9D000231CF80320EA54013380
:1036A800A342F9D1F1E741EA000313F0030FF0D187
:1036B80094460C4603462568ACF1100C1D606568FD
:1036C8005D60A5689D60E5681034DD601033BCF16D
:1036D8000F0FF0D8103A4FEA121C0CF10105CCEB91
:1036E8000C7C2D0102EB0C1601EB050C4519032E81
:1036F8003446CED900235CF80320EA500433F21A8A
:10370800032AF8D8043EB3085A1CC3EB837392000B
:10371800944406EB8304AD18BBE700BF704700BFB5
:10372800704700BF020C03461204B2B1002013F028
:103738007F4F01D108301B0213F0704F01D10430C4
:103748001B0113F0404F01D102309B00002B03DB1B
:1037580013F0804F04D00130704703041020E6E7CF
:10376800202070470368024613F0070009D013F0C1
:10377800010F21D113F0020F22D19B080220136000
:10378800704799B209B91B0C102013F0FF0F01D133
:1037980008301B0A13F00F0F01D104301B0913F076
:1037A800030F01D102309B0813F0010F02D15B080F
:1037B80004D0013013607047002070472020704704
:1037C8005B0801201360704703460A69006910B45A
:1037D800801A11D1043203F1140C92009B18891835
:1037E8000431043353F8044C043B51F8042C0439D5
:1037F800944203D19C45F5D310BC704738BF4FF0B5
:10380800FF30F9D30120F7E740F20003C7F6F07361
:1038180001EA0303A3F15073002B02DD19460020CF
:1038280070475B421B15132B0EDD143B1E2B03DD6B
:1038380001230021184670470122C3F11F0300210C
:1038480012FA03F3184670474FF40022002052FA88
:1038580003F170472DE9F041046900F114060F46A1
:10386800043450F8245000EB8404A0462846FFF79F
:1038780059FF0A28C0F120033B6014DCA642C0F1BE
:103888000B0337D254F8041CD94025FA03FC153031
:103898004CF07E53854043F4E00341EA05021046AC
:1038A8001946BDE8F081A64220D300210B3802BF9B
:1038B80045F07E530A4643F4E003F0D0B442C0F129
:1038C800200319D954F8044CDC40854021FA03FC44
:1038D80045F07E5511FA00F045F4E00544EA00028F
:1038E80045EA0C0310461946BDE8F08154F8041C5B
:1038F800043CDBE70021C8E70024E6E72DE9F043B4
:1039080083B00E4601A90746FFF7A4FF0D460446FB
:1039180069463046FFF79EFFDDF804C0A946A04679
:103928000B4602463169164638691F46401A009907
:10393800C1EB0C0101EB40110029C9BF05EB01598E
:10394800A3EB015724464D46DCBF12463B462046B2
:10395800294601F059FA03B0BDE8F083172810B5DD
:1039680004460EDD40F200010020C3F6F07140F27B
:1039780000030022C4F2240301F01CF9013CF6D133
:1039880010BD4CF26873C0F6000303EBC003D3E923
:10399800000110BD1369013902F1140C10B402EBD7
:1039A80083024C1114320134944500EB84040FD285
:1039B80000235CF80310C150043303EB0C018A4266
:1039C800F7D86FEA0C0C624422F003020432801824
:1039D800844204D9002340F8043B8442FBD810BC3D
:1039E800704700BF02694B119A4210DB0EDD11F0DF
:1039F8001F010BD01A4600EB83035B6923FA01FC15
:103A08000CFA01F1994202D0012070471A4604329B
:103A180000F1140100EB820303F1040C61450BD2A1
:103A280050F82220002AEFD1994205D253F8042DEC
:103A3800002AE9D19942F9D30020704730B5456A88
:103A480083B0044655B139B1636A4A68DB6853F8F4
:103A58002200086043F8221003B030BD1020019105
:103A6800FFF7ECFA01996062C56045608560056002
:103A7800E9E700BF70B5446A06460D4664B1E268DE
:103A8800A2B152F82530EBB1196842F8251000228E
:103A9800DA601A61184670BD1020FFF7CFFA0023CC
:103AA80004467062C360436083600360102230463E
:103AB800042100F0F1FC736AE060DA68002AE0D1C2
:103AC8001346E7E7012430462146AC40621D9200C8
:103AD80000F0E2FC03460028DCD045608460D6E7AD
:103AE8002DE9F04583B001211D4614460A9F0B9E1F
:103AF800FFF7C0FF25F0004225F07F4323F4700351
:103B080015465FEA125A00931CBF43F480130093D2
:103B18008046002C23D002A840F8044DFFF722FE6F
:103B28000346002837D10199009AC8F81410002AD2
:103B380014BF02240124C8F81820C8F81040BAF1AC
:103B4800000F1BD0AAF5866AC3F13502AAF1030A51
:103B580053443B603260404603B0BDE8F085684698
:103B6800FFF700FE01231C46C8F81030009BC8F878
:103B7800143000F12003BAF1000FE3D108EB8402FE
:103B8800A3F58663023B3B601069FFF7CBFDC0EBF2
:103B980044103060DFE7009AC0F1200112FA01F109
:103BA800C24001980143C8F814100092BFE700BF53
:103BB8002DE9F84F13690F690C461546FF1A002FB7
:103BC8004FD06ADB002701F114066168FFF752FF46
:103BD800D5F81080D4F810C005F11401002205EBC7
:103BE800880504EB8C0405F11408143400F114035F
:103BF800C76051F8047B56F8045BBB461FFA87FA86
:103C08003F0C1FFA85F9C7EB1547CAEB090A52445E
:103C180007EB224792B242EA074243F8042B3A14D0
:103C28008845E6D8A6420ED256F8041B8DB2090C78
:103C3800521901EB224192B242EA014243F8042BA5
:103C48000A14B442F0D853F8042C32B953F8082CAB
:103C58000CF1FF3C043B002AF8D0C0F810C0BDE8C6
:103C6800F88F043301F114069B00D218CB180433E3
:103C7800043253F804CC043B52F8041C043A8C4533
:103C88000AD19E42F5D30021FFF7F4FE0123036118
:103C980000234361BDE8F88F97D223462C460127BD
:103CA8001D4604F1140690E72DE9F8450D698B6867
:103CB800561101350C46AD1990469D428246496819
:103CC80003DD5B0001319D42FBDC5046FFF7D2FE6D
:103CD800002E074600F114020ADD0023194642F8B7
:103CE80023100133B342FAD107EB830303F1140223
:103CF800206904F1140304EB8000143018F01F0845
:103D08001BD0C8F1200E00211E6806FA08FC41EA03
:103D18000C0142F8041B53F8041B984221FA0EF1D7
:103D2800F2D8116001B101355046013D21463D618F
:103D3800FFF784FE3846BDE8F88553F8081042F8C6
:103D4800081008F1040808EB03018842ECD953F87D
:103D5800081042F8081008F1040808EB030188422B
:103D6800EBD8E1E72DE9F04FD1F8108017690D463F
:103D7800164687B0B845B5BF15463B460B4647467D
:103D8800B4BF1E469846AB6808EB070469689C42B6
:103D9800C8BF0131FFF76EFE00EB840300F1140B7E
:103DA800143303909B45049306D204995B46002282
:103DB80043F8042B9942FBD806EB880806F114094E
:103DC80008F1140805EB870C1435C145CDF80480BB
:103DD8000CF1140C02954BD24FF0000A059459F8D7
:103DE8000A400AEB0B08A0B2D8B1029A4346002455
:103DF80052F8045B1968AFB22D0C8EB2090C00FBA7
:103E0800076600FB0511361901EB1641B6B20C0C1A
:103E1800944546EA014643F8046BE9D81C6059F812
:103E28000A40240C1CD05BF80A204146029B00255E
:103E380010461E8897B206FB045505EB104547EA65
:103E480005470F6051F8040F53F8042B86B2120C83
:103E580002FB046202EB1542150C9C45E9D80A6086
:103E68000AF1040A019A0AEB09039A42B7D8059C99
:103E7800002C0BDD049A52F8043C3BB9134603E0CE
:103E880053F8082C043B0AB9013CF9D1039B1846A6
:103E98001C6107B0BDE8F08F10B50C460121FFF793
:103EA800E9FD01224461026110BD00BF2DE9F04522
:103EB8000D46002106462C6983B005F11408084612
:103EC80058F8017001301FFA87FA4FEA174C0AFBBD
:103ED80002330CFB02FC0CEB134C9BB203EB0C43C0
:103EE80048F80130043184424FEA1C43E8DC3BB116
:103EF800AA68944208DA05EB840201342C61536104
:103F0800284603B0BDE8F085696830460193013161
:103F1800FFF7B0FD2A6905F10C010232920007464D
:103F28000C30FCF7DFF9294630463D46FFF786FDA1
:103F3800019BE0E72DE9F041154612F00302044623
:103F480088462CD1AD101ED0666A002E34D0B768D2
:103F5800002F3BD015F0010F08D16D1013D03E682B
:103F6800A6B13046074615F0010FF6D041463A464D
:103F78002046FFF7F7FE414606462046FFF75EFD5E
:103F88006D10B046EBD14046BDE8F08139463A465F
:103F98002046FFF7E7FE386007460660E3E74CF285
:103FA800687C0023C0F6000C0CEB8202D2F8C42017
:103FB800FFF77CFF8046C5E71020FFF73FF8002396
:103FC80006466062C360436083600360204640F237
:103FD8007121FFF761FF0023B06007460360B9E76E
:103FE8002DE9F8451E4648F6396306F1080CC3F674
:103FF800E30388460546174683FB0C134FEAEC7C1F
:10400800CCEB630CBCF1010F35DD0021012252001D
:1040180001319445FBDC2846FFF72CFD089B4361E2
:104028000123092F036122DD08F1090A092418F880
:10403800043001460A220134303B2846FFF736FF98
:10404800A742F4DC0AEB0708A8F10808BE420CDD19
:10405800002418F80430014601340A22303B28466F
:10406800FFF724FFE3199E42F3DCBDE8F88508F169
:104078000A080927EAE70021CDE700BF2DE9F04F3C
:10408800914683B007460E46002900F03A81A1F117
:10409800080809F10B04FFF741FB162CD8F80410A7
:1040A8000B4600F2A0801022002514464C4538BF6C
:1040B80045F00105002D40F02A8121F0030A9245C0
:1040C800A2BF4046554608F1080875DA40F2FC03DD
:1040D80008EB0A00C2F20003D3F808E0864500F0B6
:1040E8001A81D0F804C02CF0010B8344DBF804B02B
:1040F8001BF0010F7CD0AC46284611F0010F40F0B0
:104108009B8056F8081CC1EB080BDBF8045025F01F
:104118000305002800F0DD80704500F01F8105EBE5
:104128000A030CEB03059542B8BF1D46C0F2D280C6
:1041380081685B46C068AAF10402242A8160C860CD
:1041480053F8081FDBF80C008160C86000F2D080CB
:10415800132A9C4621D931460BF1100C51F8040B57
:10416800CBF8080070680E1D1B2ACBF80C0014D978
:104178004868311D0BF1180CCBF8100070680E1D43
:10418800242ACBF8140008D14A680BF1200CCBF88C
:10419800182072680836CBF81C20314698466246CB
:1041A800584651F8043B42F8043B7368CCF8043095
:1041B8004B685360DBF80430C4EB050CBCF10F0FFF
:1041C80026D8421903F0010343EA05054560536800
:1041D80043F00103536038464546FFF7A1FA2846E5
:1041E80003B0BDE8F08F24F007042246E50F5DE731
:1041F8002CF0030C0CEB0A059542FFF67EAF8268A3
:104208000B46C168404608F108088A60D160D3E7C8
:10421800011903F0010301EB0C0243EA04044CF01A
:10422800010344604B6038465368083143F001038A
:104238005360FEF7E1FDCEE749463846FEF706FF34
:104248000546002841D0D8F80430A0F1080223F030
:10425800010141448A4200F0D780AAF104023146A4
:10426800242A78D8132A034621D9344654F8043B23
:10427800211D40F8043B031DD6F804C01B2AC5F8CD
:1042880004C014D9D4F804E01C1D01F1040CC0F8D2
:1042980004E048680CF104015860231D242A06D163
:1042A800DCF8042062604A6808315A60083308461E
:1042B8001A4650F8044B42F8044B49685960436861
:1042C800536031463846FEF797FD3846FFF728FA1F
:1042D80085E755449542AFDB5B46DBF80C00AAF155
:1042E800040253F8081F242A8160C8607FF630AFA3
:1042F800184631469846FFF7B5F95846DBF80430BA
:104308005AE7114603B0BDE8F04FFEF79FBE0C23F5
:1043180000253B6063E7DEF8045004F1100B25F03C
:10432800030C0CEB0A005845B8BF7046FFF6E5AE23
:1043380008EB0402011B41F001019A605160384604
:10434800D8F80410354601F001031C43C8F80440AE
:10435800FFF7E6F943E7FFF785F9B2E7554404F1BB
:104368001001AC448C45B5DB5D46DBF80C00AAF1C6
:10437800040255F8081F242A8160C8604CD8132A03
:10438800284624D931460BF1100051F804EBCBF83C
:1043980008E0D6F804E00E1D1B2ACBF80CE016D96D
:1043A800D1F804E0311D0BF11800CBF810E0D6F875
:1043B80004E00E1D242ACBF814E008D14A680BF15A
:1043C8002000CBF8182072680836CBF81C2031463C
:1043D800024651F804EB42F804EB766846604968F7
:1043E80051600BEB0402C4EB0C0141F001019A602F
:1043F80051603846DBF8041001F001031C43CBF888
:104408000440FFF78DF9EAE65568404608F10808C8
:1044180025F003055544CFE6314628460093CDF8EC
:1044280004C0FFF71FF9DDF804C0009BD9E700BFFF
:104438000246404240EA020321F0004141EAD373B8
:10444800C3F1FE4303F57003584240EA0303D8174B
:104458000130704702464042104321F0004141EAD2
:10446800D070C0F1FE4000F57000C00F704700BF6B
:1044780038B540F6BC44C2F200040546084600239D
:10448800236001F041FBB0F1FF3F00D038BD236845
:10449800002BFBD02B6038BD38B501FB02F1FEF7CD
:1044A800D5FD0446F8B150F8042C22F00302043A72
:1044B800242A1AD8132A03460FD9002140F8041BCE
:1044C800031D1B2A616008D91D1D416059602B1D01
:1044D800242A02BF6960596008331A46002142F84D
:1044E800041B59605160204638BD002100F002F8D5
:1044F800204638BD032AC9B230B407D822B10023F8
:10450800C15401339342FBD130BC704700EB020C1D
:10451800034601E003F8011C03F003041A460133C3
:10452800002CF7D14FF00133C2EB0C0403FB01F36D
:104538001FE042F8403C42F83C3C42F8383C42F824
:10454800343C42F8303C42F82C3C42F8283C42F8D3
:10455800243C42F8203C42F81C3C42F8183C42F803
:10456800143C42F8103C42F80C3C42F8083C42F833
:10457800043C154640323F2CA4F14004D9DC2A46BD
:10458800C5EB0C0407E042F8103C42F80C3C42F83A
:10459800083C42F8043C154610320F2CA4F11004D4
:1045A800F1DC2A46C5EB0C0501E042F8043C144650
:1045B8000432032DA5F10405F7DC01E004F8011B22
:1045C8006445FBD3A0E700BF4A1E08BF7047C0F090
:1045D8002481884240F21681114200F01781B0FA16
:1045E80080F3B1FA81F2A2EB0303C3F11F0304A223
:1045F80002EB03134FF000029F4600BFAFF30080A9
:10460800B0EBC17F00BF42EB020228BFA0EBC17034
:10461800B0EB817F00BF42EB020228BFA0EB8170A4
:10462800B0EB417F00BF42EB020228BFA0EB417014
:10463800B0EB017F00BF42EB020228BFA0EB017084
:10464800B0EBC16F00BF42EB020228BFA0EBC16014
:10465800B0EB816F00BF42EB020228BFA0EB816084
:10466800B0EB416F00BF42EB020228BFA0EB4160F4
:10467800B0EB016F00BF42EB020228BFA0EB016064
:10468800B0EBC15F00BF42EB020228BFA0EBC150F4
:10469800B0EB815F00BF42EB020228BFA0EB815064
:1046A800B0EB415F00BF42EB020228BFA0EB4150D4
:1046B800B0EB015F00BF42EB020228BFA0EB015044
:1046C800B0EBC14F00BF42EB020228BFA0EBC140D4
:1046D800B0EB814F00BF42EB020228BFA0EB814044
:1046E800B0EB414F00BF42EB020228BFA0EB4140B4
:1046F800B0EB014F00BF42EB020228BFA0EB014024
:10470800B0EBC13F00BF42EB020228BFA0EBC130B3
:10471800B0EB813F00BF42EB020228BFA0EB813023
:10472800B0EB413F00BF42EB020228BFA0EB413093
:10473800B0EB013F00BF42EB020228BFA0EB013003
:10474800B0EBC12F00BF42EB020228BFA0EBC12093
:10475800B0EB812F00BF42EB020228BFA0EB812003
:10476800B0EB412F00BF42EB020228BFA0EB412073
:10477800B0EB012F00BF42EB020228BFA0EB0120E3
:10478800B0EBC11F00BF42EB020228BFA0EBC11073
:10479800B0EB811F00BF42EB020228BFA0EB8110E3
:1047A800B0EB411F00BF42EB020228BFA0EB411053
:1047B800B0EB011F00BF42EB020228BFA0EB0110C3
:1047C800B0EBC10F00BF42EB020228BFA0EBC10053
:1047D800B0EB810F00BF42EB020228BFA0EB8100C3
:1047E800B0EB410F00BF42EB020228BFA0EB410033
:1047F800B0EB010F00BF42EB020228BFA0EB0100A3
:10480800104670470CBF012000207047B1FA81F2B2
:10481800C2F11F0220FA02F0704708B14FF0FF30D2
:1048280000F00EB80029F8D02DE90340FFF7CCFEC0
:10483800BDE8064002FB00F3A1EB0301704700BF8F
:10484800704700BF81F0004102E000BF83F00043E1
:1048580030B54FEA41044FEA430594EA050F08BF13
:1048680090EA020F1FBF54EA000C55EA020C7FEAD7
:10487800645C7FEA655C00F0E2804FEA5454D4EB54
:104888005555B8BF6D420CDD2C4480EA020281EA1E
:10489800030382EA000083EA010180EA020281EA56
:1048A8000303362D88BF30BD11F0004F4FEA0131A8
:1048B8004FF4801C4CEA113102D0404261EB4101B7
:1048C80013F0004F4FEA03334CEA133302D052423D
:1048D80063EB430394EA050F00F0A780A4F10104F9
:1048E800D5F1200E0DDB02FA0EFC22FA05F2801833
:1048F80041F1000103FA0EF2801843FA05F3594119
:104908000EE0A5F120050EF1200E012A03FA0EFC97
:1049180028BF4CF0020C43FA05F3C01851EBE371C1
:1049280001F0004507D54FF0000EDCF1000C7EEBDE
:1049380000006EEB0101B1F5801F1BD3B1F5001F1C
:104948000CD349085FEA30004FEA3C0C04F101043B
:104958004FEA445212F5800F80F09A80BCF1004F64
:1049680008BF5FEA500C50F1000041EB045141EAE6
:10497800050130BD5FEA4C0C404141EB010111F4E7
:10498800801FA4F10104E9D191F0000F04BF014692
:104998000020B1FA81F308BF2033A3F10B03B3F170
:1049A80020020CDA0C3208DD02F1140CC2F10C0200
:1049B80001FA0CF021FA02F10CE002F11402D8BF5E
:1049C800C2F1200C01FA02F120FA0CFCDCBF41EA2A
:1049D8000C019040E41AA2BF01EB0451294330BDF9
:1049E8006FEA04041F3C1CDA0C340EDC04F11404D6
:1049F800C4F1200220FA04F001FA02F340EA0300AD
:104A080021FA04F345EA030130BDC4F10C04C4F1F2
:104A1800200220FA02F001FA04F340EA03002946D2
:104A280030BD21FA04F0294630BD94F0000F83F41C
:104A3800801306BF81F480110134013D4EE77FEAFF
:104A4800645C18BF7FEA655C29D094EA050F08BF4B
:104A580090EA020F05D054EA000C04BF194610462C
:104A680030BD91EA030F1EBF0021002030BD5FEA70
:104A7800545C05D14000494128BF41F0004130BD98
:104A880014F580043CBF01F5801130BD01F00045EC
:104A980045F0FE4141F470014FF0000030BD7FEA5F
:104AA800645C1ABF194610467FEA655C1CBF0B465A
:104AB800024650EA013406BF52EA033591EA030F71
:104AC80041F4002130BD00BF90F0000F04BF002169
:104AD800704730B54FF4806404F132044FF000059C
:104AE8004FF0000150E700BF90F0000F04BF002115
:104AF800704730B54FF4806404F1320410F000457B
:104B080048BF40424FF000013EE700BF42004FEA75
:104B1800E2014FEA31014FEA02701FBF12F07F43F2
:104B280093F07F4F81F06051704792F0000F14BFEF
:104B380093F07F4F704730B54FF4607401F0004533
:104B480021F0004120E700BF50EA010208BF70478A
:104B580030B54FF000050AE050EA010208BF70477F
:104B680030B511F0004502D5404261EB41014FF4E8
:104B7800806404F132045FEA915C3FF4DCAE4FF0EC
:104B880003025FEADC0C18BF03325FEADC0C18BFD3
:104B9800033202EBDC02C2F1200300FA03FC20FA24
:104BA80002F001FA03FE40EA0E0021FA02F1144471
:104BB800C1E600BF70B54FF0FF0C4CF4E06C1CEA86
:104BC80011541DBF1CEA135594EA0C0F95EA0C0FFB
:104BD80000F0DEF82C4481EA030621EA4C5123EA6E
:104BE8004C5350EA013518BF52EA033541F480119D
:104BF80043F4801338D0A0FB02CE4FF00005E1FB50
:104C080002E506F00042E0FB03E54FF00006E1FB99
:104C180003569CF0000F18BF4EF0010EA4F1FF04DC
:104C2800B6F5007F64F5407404D25FEA4E0E6D411C
:104C380046EB060642EAC62141EA55514FEAC5202D
:104C480040EA5E504FEACE2EB4F1FD0C88BFBCF5A9
:104C5800E06F1ED8BEF1004F08BF5FEA500E50F15A
:104C6800000041EB045170BD06F0004646EA010120
:104C780040EA020081EA0301B4EB5C04C2BFD4EB52
:104C88000C0541EA045170BD41F480114FF0000E4B
:104C9800013C00F3AB8014F1360FDEBF002001F0B9
:104CA800004170BDC4F10004203C35DA0C341BDC33
:104CB80004F11404C4F1200500FA05F320FA04F005
:104CC80001FA05F240EA020001F0004221F0004139
:104CD80010EBD37021FA04F642EB06015EEA430EAC
:104CE80008BF20EAD37070BDC4F10C04C4F12005DC
:104CF80000FA04F320FA05F001FA04F240EA02008F
:104D080001F0004110EBD37041F100015EEA430E5F
:104D180008BF20EAD37070BDC4F1200500FA05F27F
:104D28004EEA020E20FA04F301FA05F243EA0203FE
:104D380021FA04F001F0004121FA04F220EA02000D
:104D480000EBD3705EEA430E08BF20EAD37070BD53
:104D580094F0000F0FD101F00046400041EB010133
:104D680011F4801F08BF013CF7D041EA060195F015
:104D7800000F18BF704703F00046520043EB0303CF
:104D880013F4801F08BF013DF7D043EA06037047BC
:104D980094EA0C0F0CEA135518BF95EA0C0F0CD0C7
:104DA80050EA410618BF52EA4306D1D181EA03010D
:104DB80001F000414FF0000070BD50EA410606BF07
:104DC8001046194652EA430619D094EA0C0F02D14C
:104DD80050EA013613D195EA0C0F05D152EA033691
:104DE8001CBF104619460AD181EA030101F00041AF
:104DF80041F0FE4141F470014FF0000070BD41F0F8
:104E0800FE4141F4780170BD70B54FF0FF0C4CF4D1
:104E1800E06C1CEA11541DBF1CEA135594EA0C0FF0
:104E280095EA0C0F00F0A7F8A4EB050481EA030E3D
:104E380052EA03354FEA013100F088804FEA033324
:104E48004FF0805545EA131343EA12634FEA0222F2
:104E580045EA111545EA10654FEA00260EF00041B3
:104E68009D4208BF964244F1FD0404F5407402D205
:104E78005B084FEA3202B61A65EB03055B084FEA96
:104E880032024FF480104FF4002CB6EB020E75EB93
:104E9800030E22BFB61A754640EA0C005B084FEABB
:104EA8003202B6EB020E75EB030E22BFB61A754638
:104EB80040EA5C005B084FEA3202B6EB020E75EB83
:104EC800030E22BFB61A754640EA9C005B084FEAFB
:104ED8003202B6EB020E75EB030E22BFB61A754608
:104EE80040EADC0055EA060E18D04FEA051545EAF7
:104EF80016754FEA06164FEAC30343EA52734FEAA0
:104F0800C2025FEA1C1CC0D111F4801F0BD141EA18
:104F180000014FF000004FF0004CB6E711F4801F7D
:104F280004BF01430020B4F1FD0C88BFBCF5E06F5D
:104F38003FF6AFAEB5EB030C04BFB6EB020C5FEA6D
:104F4800500C50F1000041EB045170BD0EF0004EC2
:104F58004EEA113114EB5C04C2BFD4EB0C0541EAF4
:104F6800045170BD41F480114FF0000E013C90E6F1
:104F780045EA060E8DE60CEA135594EA0C0F08BFB5
:104F880095EA0C0F3FF43BAF94EA0C0F0AD150EAB4
:104F980001347FF434AF95EA0C0F7FF425AF104647
:104FA80019462CE795EA0C0F06D152EA03353FF46F
:104FB800FDAE1046194622E750EA410618BF52EAEC
:104FC80043067FF4C5AE50EA41047FF40DAF52EAC0
:104FD80043057FF4EBAE12E74FF0FF3C06E000BF5D
:104FE8004FF0010C02E000BF4FF0010C4DF804CD6A
:104FF8004FEA410C7FEA6C5C4FEA430C18BF7FEA2A
:105008006C5C1BD001B050EA410C0CBF52EA430C57
:1050180091EA030F02BF90EA020F0020704710F1D7
:10502800000F91EA030F58BF994208BF90422CBF66
:10503800D8176FEAE37040F0010070474FEA410C5F
:105048007FEA6C5C02D150EA013C07D14FEA430C7D
:105058007FEA6C5CD6D152EA033CD3D05DF8040BEE
:10506800704700BF8446104662468C461946634620
:1050780000E000BF01B5FFF7B7FF002848BF10F1F7
:10508800000F01BD4DF808EDFFF7F4FF0CBF01203C
:1050980000205DF808FB00BF4DF808EDFFF7EAFFB8
:1050A80034BF012000205DF808FB00BF4DF808ED73
:1050B800FFF7E0FF94BF012000205DF808FB00BF68
:1050C8004DF808EDFFF7CEFF94BF012000205DF8F2
:1050D80008FB00BF4DF808EDFFF7C4FF34BF0120FF
:1050E80000205DF808FB00BF4FEA410212F50012EC
:1050F80015D211D56FF47873B3EB625212D94FEA17
:10510800C12343F0004343EA505311F0004F23FA00
:1051180002F018BF404270474FF00000704750EA55
:10512800013005D111F0004008BF6FF00040704712
:105138004FF00000704700BF4BB942B9002908BFC3
:10514800002802D04FF0FF310846FFF779BB82B044
:10515800EC462DE9005000F005F8DDF804E002B057
:105168000CBC7047F8B514461D4606460F4600F0BD
:10517800D7F900FB05F5A0FB042304FB0154E31851
:10518800B61A67EB0307069BC3E90067F8BD00BFC3
:10519800F8B514461D4606460F4600F00FF800FB0A
:1051A80005F5A0FB042304FB0154E318B61A67EBCA
:1051B8000307069BC3E90067F8BD00BF00292DE976
:1051C800F04F85B0C0F2C8800026002BC0F2BF8027
:1051D8008946144605469B46002B4AD18A4257D930
:1051E800B2FA82F353B1C3F1200001FA03F925FAA8
:1051F80000F812FA03F49D4048EA0909270C4846CA
:1052080039461FFA84FBFFF7DFF9394682464846DC
:10521800FFF708FB2A0C0BFB0AF342EA01494B454E
:1052280009D919EB04090AF1FF3A04D24B4584BFA6
:105238000AF1FF3AA144C3EB090939464846ADB221
:10524800FFF7C2F9394680464846FFF7EBFA0BFBF1
:1052580008FB45EA0145AB4507D92D1908F1FF3888
:1052680003D2AB4588BF08F1FF3848EA0A4800274F
:1052780003E08B4257D90027B84642463B4616B151
:10528800524263EB43031946104605B0BDE8F08F60
:1052980022B911460120FFF797F90446B4FA84F8B9
:1052A800B8F1000F5ED1C4EB0908270C1FFA84F986
:1052B8000121029139464046FFF786F93946824670
:1052C8004046FFF7AFFA4FEA154809FB0AF348EAE8
:1052D800014B5B4509D91BEB040B0AF1FF3A04D2D9
:1052E8005B4584BF0AF1FF3AA344C3EB0B0B394675
:1052F8005846ADB2FFF768F9394680465846FFF779
:1053080091FA09FB08F945EA0145A94507D92D197C
:1053180008F1FF3803D2A94588BF08F1FF3848EAE9
:105328000A48029FA9E7B3FA83F7002F68D18B4296
:105338002CBF4FF000094FF0010982428CBF4C4648
:1053480049F00104002C96D04FF0010895E752422D
:1053580063EB4303F6433BE7404261EB41014FF007
:10536800FF3632E704FA08F4C8F1200735FA07F3E4
:1053780029FA07FA270C09FA08FB3946504643EA86
:105388000B020292FFF720F939461FFA84F9834687
:105398005046FFF747FA029809FB0BF2030C43EA61
:1053A80001439A4204D91B190BF1FF3BC0F0B180AD
:1053B8009B1A394618460193FFF706F90199824668
:1053C80008463946FFF72EFADDF808C009FB0AF34C
:1053D8001FFA8CF040EA0142934208D912190AF1E7
:1053E800FF3A04D2934284BF0AF1FF3A121905FA30
:1053F80008F54AEA0B4EC3EB0208CDF808E059E776
:10540800C7F1200003FA07FAC24035FA00F342EA6E
:105418000A0B21FA00F801FA07F940464FEA1B4A3D
:1054280043EA0901029151461FFA8BF20392FFF7F2
:10543800CBF8514681464046FFF7F4F9039BDDF867
:1054480008C003FB09F24FEA1C4014FA07F340EACC
:105458000144A24204D914EB0B0409F1FF3952D3D9
:10546800A41A514620460193FFF7AEF851468046EC
:105478002046FFF7D7F90398DDF808C000FB08F2CB
:105488001FFA8CF343EA0140019B824204D910EBD6
:105498000B0008F1FF3830D348EA09481FFA83FCAB
:1054A8001B0C801A1FFA88FE4FEA184A0CFB0EF9EB
:1054B8000CFB0AFC03FB0EC103FB0AF201EB1941CA
:1054C8008C4588BF02F5803202EB114E704510D32F
:1054D8001FFA89F905FA07F709EB014014BF002202
:1054E800012287422CBF002702F00107002F3FF45A
:1054F800C4AE08F1FF380027BFE6824284BF584493
:1055080008F1FF38C8E7A24284BF09F1FF395C44BB
:10551800A6E79A4284BF0BF1FF3B1B1948E700BF7F
:105528002DE9F04F0C4683B08046164689461F4643
:1055380015468A46002B4BD18A425CD9B2FA82F3CF
:105548005BB1C3F1200001FA03FA28FA00F216FA57
:1055580003F508FA03F842EA0A0A2E0C50463146C7
:10556800AFB2FFF731F831464FEA1844814650464A
:10557800FFF758F907FB09F344EA014A534509D9EB
:105588001AEB050A09F1FF3904D2534584BF09F122
:10559800FF39AA44C3EB0A0A314650461FFA88F875
:1055A800FFF712F8314604465046FFF73BF907FB70
:1055B80004F748EA0148474506D9013C18EB0508B5
:1055C80002D2474588BF013C44EA094400265CE012
:1055D8008B4258D8B3FA83F6002E5BD18B422CBF8E
:1055E8000022012285428CBF154642F00105002D9C
:1055F80049D0012449E022B911460120FEF7E4FF11
:105608000546B5FA85F6002E40F0BA80641B2F0CCB
:105618001FFA85FA012639462046FEF7D5FF394696
:105628004FEA184B81462046FFF7FCF80AFB09F3BE
:105638004BEA014B5B4509D91BEB050B09F1FF3917
:1056480004D25B4584BF09F1FF39AB44C3EB0B0BB4
:10565800394658461FFA88F8FEF7B6FF3946044619
:105668005846FFF7DFF80AFB04FA48EA0148C24542
:1056780006D9013C18EB050802D2C24588BF013C97
:1056880044EA094401E0002634463146204603B086
:10569800BDE8F08FC6F12000B34032FA00F721FAD6
:1056A80000FB1F4314FA06F228FA00F158464FEAA5
:1056B800174A114300915146BBB20193FEF784FF8C
:1056C8005146B54081465846FFF7ACF8019C009812
:1056D80004FB09F34FEA104C4CEA014B5B4505D932
:1056E8001BEB070B09F1FF39C0F08E80C3EB0B0BE6
:1056F80051465846FEF768FF514604465846FFF79C
:1057080091F80198009A00FB04F31FFA82FC4CEA16
:105718000142934206D9013CD21903D2934201D9DE
:10572800D219013C44EA0944A8B2D21A2D0C1FFA36
:1057380084FC230C00FB0CF700FB03FE05FB0CE1CB
:1057480005FB03F501EB17418E4588BF05F580354C
:1057580005EB1145AA4210D3BFB208FA06F607EBCB
:10576800014214BF4FF0000E4FF0010E96422CBFBD
:1057780000260EF00106002E87D0013C002684E7A3
:10578800B540C6F1200124FA01F928FA01F22F0CDC
:10579800B4403946484622430092FEF715FF394681
:1057A8001FFA85FA83464846FFF73CF8009B1A0C17
:1057B8000AFB0BF342EA0144A34203D964190BF133
:1057C800FF3B27D3E41A39462046FEF7FDFE39464B
:1057D80081462046FFF726F800980AFB09F31FFACE
:1057E80080FC4CEA0144A34208D9641909F1FF3945
:1057F80004D2A34284BF09F1FF39641908FA06F8F4
:10580800E41A49EA0B4606E75B4584BF09F1FF390C
:10581800BB446BE7A34284BF0BF1FF3B6419D1E79C
:105828004FEAC0504FEAD05043F60003C4F20103D8
:1058380098801A46138813F0800FFBD0704700BF7A
:1058480070B586B04FF4165302934FF00003ADF8CD
:105858000C30ADF80E30ADF81030ADF814304FF014
:105868000C03ADF812304FF40073ADF804304FF06C
:1058780018038DF807304FF001058DF8065040F6F3
:105888000004C4F2010401AE2046314605F0F2F9E5
:105898004FF48063ADF804308DF806504FF00403E0
:1058A8008DF807302046314605F0E4F943F6000448
:1058B800C4F20104204602A905F00CFF204629463F
:1058C80005F0DCFE06B070BD10B50446FAF70AFF15
:1058D8004FF0000143F60002C4F2010207E0E35C66
:1058E8009380138813F0800FFBD001F101010B4660
:1058F8008842F4D810BD00BF30B44FEAD0730A2AEA
:1059080014BF002303F0010313B94FF0000503E0AF
:10591800C0F100004FF001054FF0000C4CF6900468
:10592800C0F60004B0FBF2F302FB1300205C01F8A0
:105938000C000CF1010C1846002BF3D12DB14FF0DF
:105948002D0201F80C200CF1010C4FF0000301F8B6
:105958000C300CF1FF330B44994209D20A461078F7
:1059680093F800C002F801CB03F801099A42F6D374
:10597800084630BC704700BF037813B94FF00000E9
:10598800704702464FF000004FEA400101EBC000AB
:10599800A0F13000034498B212F8013F002BF3D174
:1059A800704700BF2DE9F04F8BB00346002848D060
:1059B8004FF00004694603F00F0241F8242004F177
:1059C80001021B0901D01446F5E7002C39DB6D46AE
:1059D80005EB84054FF046064FF045074FF04408A5
:1059E8004FF0430A4FF042094FF0410B2A68A2F1E9
:1059F8000A03052B1CD8DFE803F003070B0F131766
:105A08005846FFF70DFF18E04846FFF709FF14E076
:105A18005046FFF705FF10E04046FFF701FF0CE096
:105A28003846FFF7FDFE08E03046FFF7F9FE04E0D0
:105A380002F1300250B2FFF7F3FEA5F10405013C74
:105A4800D4D50BB0BDE8F08F4EF21003CEF20003B0
:105A580045F6BF525A604EF60052CEF200026FF081
:105A68000F0182F823104FF000029A604FF00702EE
:105A78001A60704782B00190019A40F28853C2F2CE
:105A880000031A601A461368002BFCD102B0704755
:105A980040F28853C2F200031B683BB140F28853BE
:105AA800C2F200031A6802F1FF321A60704700BFA1
:105AB8004FF080434FF000029A849A8C92B282424F
:105AC800FBD9704710B584B001AC204605F088FDBD
